:080000009300A0001301400170
:08000800930100101302002017
:0800100023A0110083A20100EE
:08001800B302510023A26100B4
:080020006384500093031000FB
:080028001300000013000000AA
:0800300093036006630C21023A
:08003800130420001300000076
:0800400013048005EF048001A8
:08004800130530001300000055
:080050001305D00467800400D1
:08005800930520043756341211
:080060004720D8004730E800FA
:080068004720F10047401001A0
:08007000B3F0200133E120018F
:08007800B3992001335D110072
:08008000930A5000930AFAFFF5
:08008800E39A0AFE13000000D8
:08009000338B830023A46101FE
:0800980083AB8100338CAB0047
:0800A000130000001300000032
:0800A80013000000130000002A
:00000001FF